:020000040800F2
:10000000084E002099010008ED170008FD150008B2
:10001000E9170008FD0C0008832500080000000017
:1000200000000000000000000000000001010008C6
:10003000010D00080000000045010008B91F00087C
:10004000B3010008B3010008B3010008B3010008C0
:10005000B3010008B3010008B3010008B3010008B0
:10006000B3010008B3010008B3010008B3010008A0
:10007000B3010008B3010008B3010008B301000890
:10008000B3010008B3010008B3010008B301000880
:10009000B3010008B3010008B3010008DD0E000839
:1000A000B3010008B3010008B3010008B301000860
:1000B000B30100084D200008B3010008B301000897
:1000C000B3010008B3010008B3010008B301000840
:1000D000B301000865220008B3010008B30100085D
:1000E000B3010008B3010008B3010008DFF80CD029
:1000F00000F078FC0048004769300008084E0020F6
:10010000224B19680868B0E8F00F80F30988BFF344
:100110006F8F4FF0000080F311884EF00D0E704786
:100120000000000006480068006880F3088862B696
:1001300061B6BFF34F8FBFF36F8F00DF00BF00BF0B
:1001400008ED00E0EFF30980BFF36F8F0F4B1A68E3
:1001500020E9F00F106008B54FF0BF0080F3118860
:10016000BFF34F8FBFF36F8F06F0F6FA4FF000002A
:1001700080F31188BDE8084019680868B0E8F00FFE
:1001800080F30988BFF36F8F704700BF980000208D
:10019000EFF3058070470000064880470648004797
:1001A000FEE7FEE7FEE7FEE7FEE7FEE7FEE7FEE727
:1001B000FEE7FEE7ED1F0008ED00000810B540EA7D
:1001C00001040346A40703D009E010C9121F10C39D
:1001D000042AFAD203E011F8014B03F8014B521E36
:1001E000F9D210BDD2B201E000F8012B491EFBD2BA
:1001F00070470022F6E710B513460A460446194632
:10020000FFF7F0FF204610BD30B505462A460B46E5
:1002100012F8010B13F8014B08B1A042F8D01CB141
:10022000002802D06D1CF1E7284630BDF0B480EA0A
:100230000102D40F4200B2EB410F02D2024608463F
:1002400011464A0042D0C30DDDB2C1F3C752AD1A08
:10025000202D35DAC1F3160141F4000204B15242F7
:10026000C5F1200602FA06F12A411044B3EBD05F33
:1002700023D0C4B1012DA0EBC35009DCF0BC4FF07A
:10028000004202EAC352DBB200F5000000F097BA68
:10029000400000F1807000EBC350A0F1807040EA94
:1002A000D170490009E0490841EAC071A0EBC35090
:1002B00000F50000400800EBC350F0BC00F076BA37
:1002C0006142012202EB4101001BF6E7F0BC7047DE
:1002D00081F00041AAE780F00040A7E780EA010230
:1002E00010B502F00043400022D04A001FD0010E9A
:1002F00001EB1261C0F35600C2F3560240F4000055
:1003000042F40002A0FB022000047F39140400D054
:10031000401C50EA124001D44000491EC2B20C06F3
:1003200004EBD010401C4008802A02D003E00020DB
:1003300010BD20F00100002900DA0020184310BD94
:1003400030B480EA010202F0004530F0004221F0B2
:10035000004013D090B1C30DD40DC2F31601C0F309
:100360001600E41A41F4000140F400027D34914289
:1003700001D3641C00E04900002C02DA30BC0020EC
:1003800070474FF400000023914201D3891A0343C0
:1003900040084FEA4101F7D151B1914202D14FF0EB
:1003A000004105E002D24FF0010101E06FF00101D0
:1003B00003EBC450284430BC00F0F8B92DE9FE4FDF
:1003C000804681EA0300C00F0C46009021F00041F6
:1003D00023F00045B8EB0200A94105D24046214672
:1003E00090461C460B46024623F00040104347D07F
:1003F000270DC7F30A00C3F30A510290401A019077
:1004000040286BDAC3F3130040F4801B0098924637
:1004100020B10023D2EB030A63EB0B0B0198594682
:10042000C0F14002504600F090F906460D46504695
:100430005946019A00F0A8F910EB08006141002428
:1004400087EA115284EAE7731A4340D0009A62B3F4
:10045000019A012A4FEA075215DC001B61EB0201E9
:100460004FF0004202EA0752CDE90042001C41F57C
:10047000801132462B4600F0DFF903B0BDE8F08F63
:1004800040462146F9E7001B61EB0201001C41F5E3
:10049000801300185B412018A2F5001747EB0301F9
:1004A00040EAD570B6196D4111E06D084FEA360685
:1004B00045EAC0754FEA0752001B61EB0201001CC0
:1004C00041F5801149084FEA300000195141324688
:1004D0002B4603B0BDE8F04F00F09FB90098012211
:1004E00040000023D0EB020263EBE073009821464A
:1004F0004FEAE074B8EB000061EB0401E9E783F038
:1005000000435BE781F0004158E72DE9FE4F81EAA7
:10051000030404F0004421F0004100944FF0000B6C
:1005200023F0004350EA01045ED052EA03045BD09A
:10053000C3F30A54C1F30A552C44A4F2F3340194D2
:10054000A0FB0254C1F3130141F48011C3F3130360
:1005500043F4801301FB024400FB034E840A970A14
:1005600044EA815447EA8357A4FB076802958D0A41
:1005700005FB07854FEA932C04FB0C542705029DCD
:100580004FEA065847EA1637B5EB08056EEB070C3D
:10059000870E920E47EA811742EA8312A7FB0201F7
:1005A000B6EB0B0164EB00042B0D43EA0C335E1831
:1005B00044EB1C50DA465146E7FB0201C5F3130435
:1005C0004FEA0B3343EA14534FEA0432019C43EAE7
:1005D0000603A4F10C040294009CCDE900B400F0E1
:1005E0002BF903B0BDE8F08F00200146F9E7C10FF9
:1005F00080EAE0700844CA079623002100F0DFB8C3
:1006000096230022114600F0DAB800F0004220F0F4
:100610000040C10DC0F3160040F400007F2901DA4C
:1006200000207047962903DCC1F19601C84001E023
:1006300096398840002AF4D04042704720F00040AC
:10064000C10DC0F3160040F400007F2901DA00203C
:100650007047962903DCC1F19601C840704796396E
:100660008840704730B5041E71F1000404DB4FF080
:100670000044404264EB0101141E73F1000405DBE9
:100680001C464FF00043524263EB0403994208BFFB
:10069000904230BD002801DBC0F10040002901DBA1
:1006A000C1F1004181427047002801DBC0F10040E8
:1006B000002901DBC1F100418842704730B50B468B
:1006C000014600202022012409E021FA02F59D4282
:1006D00005D303FA02F5491B04FA02F52844151E56
:1006E000A2F10102F1DC30BD2DE9F05F05460020EA
:1006F00092469B4688460646814640241BE0284693
:1007000041464746224600F02FF853465A46C01A43
:10071000914110D311461846224600F016F82D1AC2
:1007200067EB01084F4622460120002100F00DF83A
:1007300017EB00094E41201EA4F10104DFDC4846FE
:1007400031462A464346BDE8F09F202A04DB203A82
:1007500000FA02F1002070479140C2F1200320FA14
:1007600003F3194390407047202A04DB203A21FA12
:1007700002F00021704721FA02F3D040C2F12002BA
:100780009140084319467047202A06DBCB17203AD0
:1007900041FA02F043EAE07306E041FA02F3D04086
:1007A000C2F1200291400843194670470029A8BFB2
:1007B0007047401C490008BF20F00100704710B48A
:1007C000B0FA80FC00FA0CF050EA010404BF10BC3F
:1007D000704749B1CCF1200421FA04F411FA0CF16C
:1007E00018BF012121430843A3EB0C01CB1D4FEAA5
:1007F00000614FEA102042BF002010BC704700EBA0
:10080000C35010440029A4BF10BC7047401C4900CD
:1008100008BF20F0010010BC704710B5141E73F122
:10082000000408DA401C41F1000192185B411A43B0
:1008300001D120F0010010BD2DE9F04D92469B46FC
:1008400011B1B1FA81F202E0B0FA80F220329046A2
:10085000FFF77BFF04460F4640EA0A0041EA0B011E
:1008600053465A46084313D0114653EA010019D0A3
:10087000C8F140025046FFF777FF05460E46504646
:1008800059464246FFF761FF084305D0012004E0C6
:1008900020463946BDE8F08D0020054346EAE07663
:1008A0002C4337430A986305E40AA0EB08000022B2
:1008B000FD0A44EA47540A3002D500200146E9E720
:1008C000010510196941DDE9084500196941BDE8D4
:1008D000F04DA2E72DE9F04D81EA030404F0004B4E
:1008E00021F0004514464FF0000A23F0004150EA81
:1008F000050220D054EA01021DD0C5F30A57024672
:10090000C5F31303C1F31300C1F30A5640F4801575
:1009100043F48013A7EB0608101BD64608F2FD38F7
:1009200073EB050002D308F1010801E092185B4166
:10093000B8F1000F03DA00200146BDE8F08D002079
:100940004FF48011064684460EE0171B73EB050733
:1009500005D3121B63EB050306434CEA010C49085F
:100960004FEA300092185B4150EA0107EDD152EA9C
:10097000030012D082EA040083EA0501084305D08F
:10098000101BAB4106D20122002306E000224FF0EB
:10099000004302E06FF0010253101AEB06004CEB2B
:1009A000085110EB0A0041EB0B01BDE8F04DFFF7D9
:1009B00034BFC1F30A52C1F3130140F2FF3341F4D3
:1009C00080119A4202DA00200146704740F2334318
:1009D0009A42A2F2334202DC5242FFF7C5BEFFF751
:1009E000B4BE0000064C074D06E0E06840F001038D
:1009F00094E8070098471034AC42F6D3FFF77AFB2F
:100A000090950008B095000870B58C1810F8015B3F
:100A100015F0070301D110F8013B2A1106D110F897
:100A2000012B03E010F8016B01F8016B5B1EF9D19B
:100A30002B0705D40023521E0DD401F8013BFAE721
:100A400010F8013BCB1A921C03E013F8015B01F88C
:100A5000015B521EF9D5A142D8D3002070BD000021
:100A600000B585B00121480201F07CF84FF4004048
:100A700001F05CF8002000908DF804008DF805006E
:100A80004FF4602002900020039001208DF81000A8
:100A900069460D4800F060F801210B4800F030F87D
:100AA000094800F0DDF800BF074800F04BF80028C7
:100AB000FAD1054800F0E4F800BF034800F02BF835
:100AC0000028FAD105B000BD0024014010B504464D
:100AD000E1B205230122094800F066F80121074828
:100AE00000F0C3F800BF0221044800F022F80028FB
:100AF000F9D0024800F019F810BD000000240140B0
:100B000021B1826842F00102826003E0826822F033
:100B1000010282607047014600208A6802F00402E8
:100B20000AB1012000E0002070470146C86C80B285
:100B300070470246002013680B400BB1012000E013
:100B400000207047014600208A6802F008020AB1BE
:100B5000012000E00020704730B50246002000234D
:100B600050680F4C20400D790C6844EA052420435E
:100B7000506090680B4C2040D1E902542C434D79D1
:100B800044EA450420439060D06A20F470000C7C55
:100B9000641EE4B2234340EA0350D06230BD00003B
:100BA000FFFEF0FFFDF7F1FFF0B504460D46002013
:100BB0000021092D11DDE068A5F10A0606EB4607C4
:100BC000072606FA07F18843A5F10A0606EB460652
:100BD00003FA06F10843E0600CE0206905EB4507E5
:100BE000072606FA07F1884305EB450603FA06F1E6
:100BF00008432061072A0FDA606B561E06EB860752
:100C00001F2606FA07F18843561E06EB860605FAEC
:100C100006F10843606322E00D2A0FDA206BD61F2D
:100C200006EB86071F2606FA07F18843D61F06EB58
:100C3000860605FA06F10843206310E0E06AA2F197
:100C40000D0606EB86071F2606FA07F18843A2F178
:100C50000D0606EB860605FA06F10843E062F0BDD4
:100C6000816841F008018160704721B1826842F4D7
:100C7000A002826003E0826822F4A00282607047D2
:100C8000816841F0040181607047000010B54FF4A5
:100C90000041084800F017FC044624B1012C06D19D
:100CA0000549087003E000200349087000BF00BF39
:100CB000204610BD000C01401401002010B54FF477
:100CC0008051034800F0FFFB0446204610BD0000A1
:100CD000000C014008B50121082000F043FF4FF44B
:100CE0001040ADF8000028208DF803006946024846
:100CF00000F05EFB08BD0000000C014000BFFEE7F5
:100D0000704700000EB50F48007800B10EBD0121FC
:100D1000C80200F027FF4FF6FF70ADF8040047202F
:100D2000ADF800000020ADF80600ADF802008DF827
:100D300008006946044801F043FA0120014908709F
:100D400000BFE3E714000020002C014010B504466A
:100D50000B48007808B9FFF7D5FF0021094801F0DA
:100D60002DFA0121074801F09CF900BF054801F068
:100D7000A4F9A042FAD30021024801F092F910BD73
:100D800014000020002C014070B503200D490870AC
:100D90000D480068FFF752FC84B20AE02046FFF7D6
:100DA0002FFC054601F076F8282005F035FB601E83
:100DB00084B25A2CF2DC2046FFF722FC024908607C
:100DC00070BD00000C0100201001002070B504204F
:100DD0000D4908700D480068FFF717FC04B20AE0DF
:100DE0002046FFF704FC054601F054F8282005F0E2
:100DF00013FB601E04B2002CF2DC2046FFF7F7FB69
:100E00000249086070BD00000C01002010010020A4
:100E100070B501200D4908700D480068FFF70EFC01
:100E200084B20AE02046FFF7EBFB054601F032F8FA
:100E3000282005F0F1FA601C84B25A2CF2DB20461F
:100E4000FFF7DEFB0249086070BD00000C010020C6
:100E50001001002070B502200D4908700D4800688F
:100E6000FFF7ECFB84B20AE02046FFF7C9FB05461A
:100E700001F010F8142005F0CFFAA01C84B2B42CB5
:100E8000F2DB2046FFF7BCFB0249086070BD0000A2
:100E90000C0100201001002010B50446204600F08F
:100EA00007F802A000F004F810BD00000D0A0000D1
:100EB00010B504460BE014F8011B074801F05DFB78
:100EC00000BF4021044801F08BFA0028F9D02078B7
:100ED0000028F0D110BD0000003801401CB52020D2
:100EE00000F030F808B32021104800F0ECFA08B107
:100EF000012000E0002001900020009000236A46BD
:100F000001A90B48006805F051FE202000F014F8FC
:100F100000BF009838B14FF0805006490860BFF319
:100F20004F8FBFF36F8F00BF00BF1CBD000C01408F
:100F30002C01002004ED00E001490860704700002A
:100F400014040140014600200022074B1B6803EAFD
:100F50000102054B14331B680B4013B10AB1012089
:100F600000E00020704700000004014000212349F8
:100F70008279002A3AD00A46126803689A430B46DF
:100F80001A600A1D126803689A430B1D1A600279E1
:100F900011440A6803681A430A60184A0832126842
:100FA00003689A43154B08331A601A1D12680368C8
:100FB0009A43124B0C331A604279102A0ED11A1F31
:100FC000126803681A430D4B08331A601A1D126821
:100FD00003681A43094B0C331A600DE00749427944
:100FE00011440A6803681A430A6005E00279114453
:100FF0000A6803689A430A607047000000040140D1
:101000001CB500F03BFBFFF77DFE00F0EDFEFFF7A7
:1010100061FE00F0C5FC01F0CDFA01F0FDFA00F030
:1010200063FBFFF71DFD01F0B3FA00F0C5FA00F015
:101030007DFA674908601E2002F08EFD00F078FB03
:1010400000F0C0FB01F030F901F080F900F0D8FAAF
:1010500060A001F013FB012005F094FC63490860D7
:10106000012005F08FFC62490860012005F08AFC30
:101070006049086005F0B0FB5F4908605F480023E5
:101080001A4643F6982100905DA006F035FA5F49B4
:1010900008605F48022100238022CDE900105DA195
:1010A0005F4805F019FF5F48022100238022CDE947
:1010B00000105DA1614805F00FFF61480221002387
:1010C0008022CDE900105FA1644805F005FF644867
:1010D000022100238022CDE9001062A1674805F0BB
:1010E000FBFE6748022100238022CDE9001065A1A4
:1010F000684805F0F1FE6848022100238022CDE90E
:10110000001066A1694805F0E7FE69480221002346
:101110008022CDE9001067A1694805F0DDFE69482D
:10112000022100238022CDE9001067A1694805F063
:10113000D3FE6948022100238022CDE9001067A177
:101140006A4805F0C9FE6A48022100238022CDE9E1
:10115000001068A16A4805F0BFFE6A48022100231A
:10116000CA01CDE9001068A16B4805F0B5FE6B48D7
:10117000022100238022CDE9001069A16B4805F00F
:10118000ABFE6B4802210023CA01CDE9001069A122
:101190006B4805F0A1FE6B48022100234FF4C0729A
:1011A000CDE9001068A16D4805F096FE6C4802215B
:1011B00000238022CDE900106AA16C4805F08CFE66
:1011C00020210D48006805F014FB05F081FA1CBDD4
:1011D0003000002048656C6C6F2066726F6D205582
:1011E0005341525432210D0A000000004C000020EF
:1011F000500000205400002044000020A12F0008CF
:10120000736F667454696D657200000048000020B9
:10121000580000207461736B5F626F6479487700D7
:10122000313C00085C0000207461736B5F73657271
:10123000766F5F6F70656E546F496E0015580008C9
:10124000600000207461736B5F736572766F5F6F0F
:1012500070656E546F4F757400000000355A0008B9
:10126000640000207461736B5F736572766F5F63F7
:101270006C6F7365546F496E00000000455700089D
:10128000680000207461736B5F77617465725075DC
:101290006D700000195C00086C0000207461736BB5
:1012A0005F77696E645F73726300000075600008A9
:1012B000700000207461736B5F77696E64000000DA
:1012C000295F0008800000207461736B5F736166A2
:1012D0006574790039560008740000207461736BDE
:1012E0005F6C696768745F737263000099540008EB
:1012F000780000207461736B5F6C6967687400002C
:10130000995300087C0000207461736B5F776174EF
:1013100065724C6576656C001D5B000884000020DA
:101320007461736B5F6F6C65640000007D5500082D
:10133000880000207461736B5F776569676874006B
:10134000E95C00088C0000207461736B5F6573704A
:10135000383236365F74657374000000953C0008BF
:10136000900000204B65795461736B00CD610008DB
:1013700030B500228B071C0F0F2303FA04F20B4B2E
:101380008C1053F824309343084C8D1044F82530CA
:1013900023468C1053F824308C07240F00FA04F4F1
:1013A0002343024C8D1044F8253030BD0800014025
:1013B0002DE9F041024600250026002000230024EC
:1013C000002791F803C00CF00F0591F803C00CF052
:1013D000100CBCF1000F03D091F802C04CEA0505D7
:1013E00091F800C0BCF1000F31D0146800202BE050
:1013F0004FF0010C0CFA00F3B1F800C00CEA030640
:101400009E4220D183004FF00F0C0CFA03F7BC432F
:1014100005FA03FC4CEA040491F803C0BCF1280F60
:1014200006D14FF0010C0CFA00FCC2F814C00AE01F
:1014300091F803C0BCF1480F05D14FF0010C0CFA34
:1014400000FCC2F810C0401C0828D1D31460B1F8C9
:1014500000C0BCF1FF0F34DD546800202EE000F125
:10146000080C4FF0010808FA0CF3B1F800C00CEAC0
:1014700003069E4221D183004FF00F0C0CFA03F7B4
:10148000BC4305FA03FC4CEA040491F803C0BCF128
:10149000280F05D100F1080C08FA0CF8C2F81480E6
:1014A00091F803C0BCF1480F07D100F1080C4FF0D0
:1014B000010808FA0CF8C2F81080401C0828CED3A6
:1014C0005460BDE8F0810246002093680B400BB1E8
:1014D000012000E0002070474161704701617047C2
:1014E0000AB1016100E041617047000010B54FF49E
:1014F00080410548FFF7E7FF08B9012000E0002020
:101500000446204610BD0000000C014010B54FF409
:1015100000510548FFF7D7FF08B9012000E000207F
:101520000446204610BD0000000C014070B54FF489
:1015300000612048FFF7D0FF0120FFF707FC0024DF
:1015400000BF4FF480611B48FFF7BDFF0028F8D1B2
:10155000002519E04FF400611648FFF7BFFF012096
:10156000FFF7F4FB64004FF400611248FFF7B4FF8B
:101570000120FFF7EBFB4FF480610E48FFF7A3FF5C
:1015800000B1641C681CC5B2182DE3DB4FF4006188
:101590000848FFF7A3FF0120FFF7D8FB84F40004FD
:1015A0004FF400610348FFF797FF0120FFF7CEFBE0
:1015B000204670BD000C014008B50121082000F054
:1015C000D1FA10208DF8030003208DF802004FF4AB
:1015D0000060ADF8000069460748FFF7E9FE4FF4E8
:1015E0008060ADF8000048208DF80300694602488D
:1015F000FFF7DEFE08BD0000000C014000BFFEE763
:101600001FB50121092000F0ADFA2020ADF80C0033
:1016100028208DF80F0003208DF80E0003A915482F
:10162000FFF7C6FE05210120FFF7A2FE2020019052
:1016300000208DF8080010208DF8090001208DF899
:101640000A0001A8FFF792FC17208DF80000002087
:101650008DF8010001208DF802008DF80300684626
:1016600000F0C6F800220121052005F09CF902498E
:1016700008601FBD000C01402C01002008B50121AD
:10168000082000F06FFA10208DF803000120ADF85B
:10169000000003208DF8020069460448FFF788FE29
:1016A00001210248FFF71AFF08BD0000000C0140AD
:1016B00010B501210348FFF711FF0020024908700F
:1016C00010BD0000000C01401701002010B50121E1
:1016D0000348FFF701FF01200249087010BD000018
:1016E000000C01401701002008B50121042000F082
:1016F00039FA00208DF803000120ADF80000032026
:101700008DF8020069460248FFF752FE08BD00004E
:101710000008014010B50020FFF7D8F9044640F654
:101720004850844201DB012010BD0020FCE700008E
:1017300008B50121042000F015FA10208DF80300EF
:101740000001ADF8000003208DF802006946024850
:10175000FFF72EFE08BD00000008014010B54FF451
:1017600080710348FFF7B8FE00200249087010BDE1
:10177000000801402101002010B54FF4807103489A
:10178000FFF7ACFE01200249087010BD00080140BF
:101790002101002010B50420FFF798F910BD70B5A5
:1017A0000024002507E0FFF7F5FF0444052004F0BE
:1017B00033FE681CC5B20A2DF5DB0A20B4FBF0F439
:1017C000A0B270BD08B50121042000F0CBF91020B3
:1017D000ADF8000000208DF8030069460148FFF7CE
:1017E000E7FD08BD0008014000BFFEE770470000AC
:1017F00070B5002100230F22C47804B3154C24686F
:1018000004F4E064C4F5E064210AC1F10403CA40B1
:10181000447804FA03F184781440214309010E4C02
:101820000678A155047804F01F050124AC40057822
:101830006D11AD0005F1E025C5F8004109E004781F
:1018400004F01F050124AC40044D0678761145F8DC
:10185000264070BD0CED00E000E400E080E100E017
:1018600002490143024A1160704700000000FA0576
:101870000CED00E070B500240EE00021204600F0E1
:10188000E6F8002504E0002000F038F9681CC5B235
:10189000802DF8DB601CC4B2082CEEDB70BD0000AC
:1018A00008B50121082000F05DF914208DF803002F
:1018B00003208DF802004FF48070ADF800006946F7
:1018C0000A48FFF775FD4FF40070ADF80000694657
:1018D0000648FFF76DFD012211020448FFF700FEE4
:1018E000012251020148FFF7FBFD08BD000C014039
:1018F00070B50546002415E08020204100EA05026D
:101900004FF400710E48FFF7EBFD012211020C4865
:10191000FFF7E6FD00224FF480710948FFF7E0FD74
:10192000601CC4B2082CE7DB012211020448FFF757
:10193000D7FD00224FF480710148FFF7D1FD70BD43
:10194000000C014010B5012251020A48FFF7C8FD02
:10195000012211020748FFF7C3FD00224FF4007176
:101960000448FFF7BDFD00224FF480710148FFF7E6
:10197000B7FD10BD000C014010B500224FF40071FE
:101980000648FFF7ADFD012211020448FFF7A8FD4C
:10199000012251020148FFF7A3FD10BD000C0140D8
:1019A00070B5002406E0002500E06D1CB5F57A7FD7
:1019B000FBD3641CB4F57A7FF5D3FFF771FFAE203B
:1019C00000F08CF8D52000F089F8802000F086F82F
:1019D000A82000F083F83F2000F080F8D32000F02A
:1019E0007DF8002000F07AF8402000F077F8A12080
:1019F00000F074F8C82000F071F8DA2000F06EF8FA
:101A0000122000F06BF8812000F068F8CF2000F081
:101A100065F8D92000F062F8F12000F05FF8DB20D3
:101A200000F05CF8302000F059F8A42000F056F8DF
:101A3000A62000F053F88D2000F050F8142000F09C
:101A40004DF8AF2000F04AF8FFF714FF70BD70B5F5
:101A500005460C4645F0B00000F040F8102141EA80
:101A6000141000F03BF804F00F0000F037F870BDE0
:101A70002DE9F04105460E461746721E1207110E5B
:101A80006A1E5206100EFFF7E2FF002407E0124A1A
:101A900002EB8711085D00F031F8601CC4B2102C15
:101AA000F5DB721E1207110E6A1E012303EB4202C0
:101AB000D0B2FFF7CCFF002409E07900491C064AA8
:101AC00002EB4111085D00F019F8601CC4B2102C43
:101AD000F3DBBDE8F08100003001002010B50446C2
:101AE000FFF730FF7820FFF703FF0020FFF700FF2C
:101AF0002046FFF7FDFEFFF73FFF10BD10B504467F
:101B0000FFF720FF7820FFF7F3FE4020FFF7F0FEFD
:101B10002046FFF7EDFEFFF72FFF10BD10B504467E
:101B200021464FF0804000F047FB10BD01460020E9
:101B3000034A506820F4404008435060704700005A
:101B40000010024029B1064AD2690243044BDA610F
:101B500004E0034AD2698243014BDA617047000016
:101B60000010024029B1064A92690243044B9A616F
:101B700004E0034A92698243014B9A617047000076
:101B80000010024030B500210022002400232D4D1A
:101B90006D6805F00C0121B1042905D0082923D175
:101BA00005E0294D056022E0274D05601FE0254D29
:101BB0006D6805F47012234D6D6805F480340225BC
:101BC00005EB92421CB9214D554305600BE01D4DBC
:101BD0006D6805F400351DB11C4D5543056002E0EC
:101BE000194D5543056002E0174D056000BF00BF69
:101BF000144D6D6805F0F0010909154D6B5C056821
:101C0000DD4045600F4D6D6805F4E061090A104D37
:101C10006B5C4568DD4085600A4D6D6805F4605178
:101C2000C90A0B4D6B5C4568DD40C560054D6D68AC
:101C300005F44041890B074D6B5CC568B5FBF3F5B6
:101C4000056130BD0010024000127A0000093D001D
:101C5000000000201000002070B502460C46002055
:101C600018E0134B134D2D88595D124D2D886B1CB8
:101C7000DD1703EB15652D12A3EB05250D4E358001
:101C80000A2901D00D2900D10DE00346451CA8B258
:101C9000D15400BF07490988074B1B88994202D0DD
:101CA000611E8142DDDC00BF0021115470BD0000C7
:101CB00008490020240100202201002010B5A4B012
:101CC000044614480078012806D002280AD00328C8
:101CD0000ED0042818D111E022460F4901A800F0C7
:101CE000DDFC11E022460D4901A800F0D7FC0BE015
:101CF00022460B4901A800F0D1FC05E02246094923
:101D000001A800F0CBFC00BF00BF01A8FFF7C4F89A
:101D100024B010BD0C010020E8910008709200086A
:101D2000F89200088493000810B5C0B00446084833
:101D3000007808B107A000E008A003462246094940
:101D400001A800F0ABFC01A8FFF7A6F840B010BD59
:101D500021010020747275650000000066616C73DB
:101D6000650000001095000810B5C0B00446084892
:101D7000007808B107A000E008A003462246094900
:101D800001A800F08BFC01A8FFF786F840B010BD59
:101D900014010020747275650000000066616C73A8
:101DA000650000000C94000810B5C0B00446084857
:101DB000007808B107A000E008A0034622460949C0
:101DC00001A800F06BFC01A8FFF766F840B010BD59
:101DD00015010020747275650000000066616C7367
:101DE000650000008C94000800B589B00121084608
:101DF000FFF7A8FE01210420FFF7B4FE18208DF89C
:101E000023000220ADF8200003208DF8220008A94D
:101E10001D48FFF7CDFA4FF0804000F06BF900202D
:101E2000ADF81A00ADF8160044F61F60ADF81800C2
:101E30004720ADF8140000208DF81C0005A94FF0D4
:101E4000804000F0BDF901A800F0ACF96020ADF8C9
:101E500004000020ADF80C000120ADF806000020C1
:101E6000ADF80A0001A94FF0804000F049F90121C6
:101E7000880700F016F9054805490860084600681B
:101E800000F008F809B000BD000801400000B442AD
:101E9000100100202DE9F04104460A492046FEF7D2
:101EA0004FFA80460849FEF719FA07460749FEF738
:101EB000BDF90646FEF7C2FB85B22846FFF72EFEA7
:101EC000BDE8F081000034430000FA440000FA430A
:101ED00010B500F001F810BD0CB500200190009085
:101EE0003348006840F480303149086000BF304812
:101EF000006800F4003000900198401C01900098A8
:101F000018B90198B0F5A06FF1D12948006800F424
:101F1000003010B10120009001E0002000900098F6
:101F2000012843D12348006840F01000214908608F
:101F30000846006820F0030008600846006840F08A
:101F4000020008601A48406819494860084640681D
:101F500048600846406840F4806048600846406831
:101F600020F47C1048600846406840F4E81048605F
:101F70000846006840F08070086000BF0C480068A8
:101F800000F000700028F9D00948406820F00300F4
:101F9000074948600846406840F00200486000BFBA
:101FA0000348406800F00C000828F9D10CBD00007F
:101FB000001002400020024010B500BFBF2080F397
:101FC0001188BFF34F8FBFF36F8F00BF04F0CEFFB8
:101FD00018B14FF080500449086000BF002080F322
:101FE000118800BF10BD000004ED00E010B51348DB
:101FF000006840F001001149086008464068104937
:1020000008400E494860084600680E4908400B49E0
:1020100008600846006820F4802008600846406890
:1020200020F4FE0048604FF41F008860FFF750FF67
:102030004FF000600449086010BD0000001002402D
:102040000000FFF8FFFFF6FE08ED00E010B50121EB
:102050000D4800F035F8B0B101210B4800F01EF832
:102060000A48007878B10A480068401C08490860AE
:102070000846006807490978884204D301200649C8
:10208000088001F0CFFD10BD000400401C010020BD
:10209000180100201D0100201E010020CA430282F9
:1020A000704721B1028842F00102028004E00288F8
:1020B0004FF6FE731A40028070470146888C7047C5
:1020C00030B50246002000230024158A05EA0103EA
:1020D000958905EA010413B10CB1012000E000204C
:1020E00030BD1AB183890B43838102E083898B431E
:1020F0008381704701894FF6F87211400181704762
:1021000070B5002400220023058C4FF6EF76354091
:102110000584028C8388048B48F6FF752C404FF6AB
:10212000FF452C400D884FF6FF7606EA05252C4327
:102130004FF6DF752A400D8906EA05152A434D88BA
:1021400006EA05152A43154DA84202D0144DA842AF
:102150001DD14FF67F752A404D894FF6FF7606EA6E
:1021600005152A434FF6BF752A408D8806EA0515E6
:102170002A434FF6FF352B404FF2FF752B408D89D8
:1021800006EA85052B43CD8906EA85052B43838026
:102190000483CD880587028470BD0000002C0140B7
:1021A000003401400021018041808180C180018193
:1021B00041818181C1817047018770478184704767
:1021C000002202881D4B98420ED01D4B98420BD026
:1021D000B0F1804F08D01B4B984205D01A4B984263
:1021E00002D01A4B984204D14FF68F731A404B8895
:1021F0001A43174B984207D0164B984204D04FF61B
:10220000FF431A40CB881A4302808B8883850B8852
:1022100003850A4B98420BD0094B984208D00E4BCD
:10222000984205D00D4B984202D00D4B984201D1F7
:102230000B7A03860123838270470000002C014043
:10224000003401400004004000080040000C004041
:1022500000100040001400400040014000440140D4
:102260000048014010B540F225510C4800F0C5F877
:1022700098B10A4800F07CF9C4B2094809490988B4
:10228000445408490988481CC11700EB1161091220
:10229000A0EB0121034A118000BF10BD00380140AE
:1022A000084900202201002000B587B0012144F236
:1022B0000400FFF757FC4FF40070ADF81800182029
:1022C0008DF81B0003208DF81A0006A91D48FFF7A2
:1022D0006FF84FF48060ADF8180004208DF81B00F3
:1022E00006A91848FFF764F84FF4E1300290002087
:1022F000ADF80C00ADF80E00ADF81000ADF814000C
:102300000C20ADF8120002A90F4800F0C5F8012218
:1023100040F225510C4800F09AF825208DF8040071
:1023200001208DF8050002208DF8060001208DF8AF
:10233000070001A8FFF75CFA0121034800F044F808
:1023400007B000BD000801400038014000B585B06D
:1023500001210420FFF706FC01214804FFF7F2FBEE
:102360000420ADF8100018208DF8130003208DF81C
:10237000120004A91248FFF71BF80820ADF810005E
:1023800004208DF8130004A90D48FFF711F84FF44D
:10239000E13000900020ADF80400ADF80600ADF883
:1023A0000800ADF80C000C20ADF80A00694605489D
:1023B00000F072F80121034800F006F805B000BDF6
:1023C000000801400044004021B1828942F40052DB
:1023D000828104E082894DF6FF731A408281704742
:1023E00002460020B1F5007F00D100BF13880B40EA
:1023F0000BB1012000E00020704770B502460024B8
:1024000000230025002040F66A16B14200D100BF2B
:10241000C1F3421501F01F03012606FA03F3012D53
:1024200002D19689334006E0022D02D1168A33404C
:1024300001E0968A33400C12012606FA04F416884D
:10244000344013B10CB1012000E0002070BDF0B5A4
:102450000346002400260025002040F66A17B942F2
:1024600000D100BF1846C1F3421401F01F06012736
:1024700007FA06F5012C01D10C3004E0022C01D141
:10248000103000E014301AB107682F43076002E0F3
:102490000768AF430760F0BD2DE9F04786B00546F9
:1024A0000E460024A24600BFA1460027B08900B115
:1024B00000BF2F462C8A4CF6FF700440F08804437E
:1024C0002C82AC894EF6F3100440B0883189084361
:1024D000718908430443AC81AC8A4FF6FF40044045
:1024E000B0890443AC8201A8FFF74CFB1F48874228
:1024F00002D1DDF810A001E0DDF80CA0A88900F4FD
:10250000004040B10AEBCA0000EB0A1031684900F4
:10251000B0FBF1F807E00AEBCA0000EB0A103168E3
:102520008900B0FBF1F86420B8FBF0F00401200949
:10253000642101FB1089A88900F4004040B13220D9
:1025400000EBC900B0FBF1F000F00700044308E025
:10255000322000EB09106421B0FBF1F000F00F0015
:1025600004432C8106B0BDE8F0870000003801402C
:1025700001468888C0F308007047C1F308028280D2
:10258000704700BFFEE710B50520FEF79FFA10BDAB
:1025900008B501210420FFF7E5FA2020ADF800007E
:1025A00000208DF8030069460148FEF701FF08BDD1
:1025B0000008014008B501210420FFF7D3FA1020DC
:1025C0008DF803008020ADF8000003208DF8020094
:1025D00069460248FEF7ECFE08BD00000008014015
:1025E00010B580210348FEF777FF002002490870EC
:1025F00010BD0000000801401501002010B5802129
:102600000348FEF76BFF01200249087010BD00006F
:10261000000801401501002008B501210820FFF73E
:10262000A1FA10208DF803000220ADF8000003206D
:102630008DF8020069460248FEF7BAFE08BD0000A8
:10264000000C014010B502210348FEF745FF0020B1
:102650000249087010BD0000000C01401601002066
:1026600010B502210348FEF739FF01200249087026
:1026700010BD0000000C0140160100200FB4054BF6
:1026800010B503A9044A029800F0EEF810BC5DF8FA
:1026900014FB000009300008B00200200FB4084B02
:1026A00010B504A902AA039800F0DEF8044602A9B6
:1026B000002000F070FC204610BC5DF814FB000008
:1026C000972F000802E008C8121F08C1002AFAD19B
:1026D00070477047002001E001C1121F002AFBD1A2
:1026E000704700002DE9FF5F82B00021DDE9043072
:1026F000020DDDF840B0034318D044F61050A2F2AA
:10270000FF3242431514119801281FD0A5EB0B008E
:10271000401C5FEA000A4FF000064E4FDFF8389188
:10272000B046504615D5CAF1000413E011980124B3
:102730004AA3012801D16FEA0B010298119AC0E95E
:102740000031C0E9024206B0BDE8F09FCBF10000C5
:10275000DFE704460021404A491842EB0450CDE926
:10276000001012E0E00707D032463B46404649469B
:10277000FDF7CBFE8046894632463B461046194659
:10278000FDF7C3FE06460F466410002CEAD1DDE9D2
:102790000401DDE90023BAF1000F06DAFDF7B5FE0A
:1027A00042464B46FDF7B1FE05E0FEF793F8424680
:1027B0004B46FEF78FF804460E460022284BFDF7E5
:1027C00051FF03D84FF0FF30014607E00022254BB0
:1027D00020463146FDF7F2FDFEF7EBF8102409E044
:1027E000002C0ADB0A220023FDF77EFF039B303218
:1027F0001A55641E50EA0102F2D1641C039AC4F116
:1028000011031444119A012A03D0012208430DD167
:102810000AE0084304D000204FF0110B119072E73A
:10282000A3EB0B056D1E0DE05B4504DD4FF00002D0
:1028300005F1010504E003DA4FF00002A5F10105FE
:10284000002AECD002981199C0E90231C0E9004594
:1028500079E70000000014400000F03F3000000065
:102860000000F0430000E03F2DE9FF4F95B09B468C
:102870008946064600250FE2252877D10024274601
:10288000F84A0121059400E0044316F8013F203B7B
:1028900001FA03F01042F7D130782A2811D06FF0F6
:1028A0002F033078A0F13002092A16D8059A44F097
:1028B000020402EB820203EB42021044761C0590F4
:1028C000EFE759F8042B0592002A03DA504244F44A
:1028D0000054059044F00204761C30782E2816D15E
:1028E00016F8010F44F004042A280DD06FF02F02CF
:1028F0003078A0F13003092B09D807EB870302EBEE
:102900004303C718761CF3E759F8047B761C30782C
:102910006C280FD006DC4C2817D068280DD06A2808
:1029200014D104E0742810D07A280FD10DE044F4BB
:1029300000140AE044F4801401E044F44014727876
:10294000824202D104F58014761C761C3078662809
:102950000BD013DC582877D009DC002875D0452827
:10296000F6D04628F4D047281AD19DE118E0632814
:1029700035D0642879D0652812D195E1702873D0BC
:1029800008DC6728F1D069286FD06E280DD06F2839
:1029900006D1B5E073282CD0752875D0782874D06E
:1029A0005A46179990476D1C75E1C4F302500228EE
:1029B00009D003280DD0D9F8001004280DD00D60DF
:1029C00009F1040967E1D9F80010EA17C1E90052DA
:1029D000F6E7D9F800100D80F2E70D70F0E719F86E
:1029E000041B8DF8001000208DF80100EA4601203C
:1029F00003E059F804AB4FF0FF3061074FF00001DE
:102A000002D40DE008F101018846B9420FDA804591
:102A1000F8DB1AF808100029F4D108E008F10101E8
:102A200088468142FADB1AF808100029F6D1059889
:102A30005B46A0EB080721463846179A00F094FA47
:102A4000284400EB080507E04DE029E10DE01AF805
:102A5000010B5A4617999047B8F10108F7D25B4627
:102A600021463846179A13E142E00A220092C4F345
:102A700002524FF0000A022A08D059F804CB032A68
:102A80004FEAEC710AD00DE029E02AE009F10701D4
:102A900021F00702F2E802C1914609E00FFA8CFC2E
:102AA0004FEAEC71042A03D14FFA8CFC4FEAEC7127
:102AB000002907DA0A460021DCF1000C61EB020173
:102AC0002D2202E0220504D52B228DF804200122BC
:102AD00003E0E20701D02022F7E7904659E00A21FF
:102AE00002E010220DE010214FF0000A00910BE0EF
:102AF00010224FF0000A44F004040827009203E07B
:102B000008224FF0000A0092C4F30252022A05D0B4
:102B100059F804CB0021032A08D009E009F1070184
:102B200021F00702F2E802C1914605E01FFA8CFC91
:102B3000042A01D10CF0FF0C4FF00008220728D521
:102B4000702806D0009B83F0100353EA0A0305D0D7
:102B50000EE040228DF80420012208E05CEA010228
:102B600006D030228DF804208DF805000222904610
:102B7000009B83F0080353EA0A030AD15CEA0102CE
:102B800001D1620705D530228DF804204FF00108ED
:102B90007F1E582804D034A003900EA802900DE0A8
:102BA00036A0F9E753466046009AFDF79DFD84463E
:102BB0000398825C0298401E029002705CEA010059
:102BC000F0D1029806A9081A00F1200A600702D580
:102BD00024F4803400E00127574502DDA7EB0A000A
:102BE00000E0002000EB0A01009005984144401AE3
:102BF0000590E00306D45B462146179A059800F03D
:102C0000B3F90544002706E001A85A46C05D1799AC
:102C100090476D1C7F1C4745F6DBE0030CD55B46F7
:102C20002146179A059800F09FF9054404E03020EA
:102C30005A46179990476D1C0099481E009000292C
:102C4000F5DC08E0029802995A460078491C029186
:102C5000179990476D1CBAF10001AAF1010AF1DC45
:102C600065E1000009280100303132333435363750
:102C700038396162636465660000000030313233C8
:102C80003435363738394142434445460000000068
:102C900000F058F90544761C307800287FF4ECAD3C
:102CA00019B02846BDE8F08F620700D4062709F165
:102CB000070222F0070CFCE80223E14603F000487B
:102CC0005FEA080C02D00FF2702C0DE05FEA045CA2
:102CD00002D50FF2682C07E05FEAC47C02D00FF245
:102CE000602C01E0AFF2700C4FF0FF3823F000438E
:102CF000CDF850C065280CD006DC452809D0462800
:102D00001DD047283DD13DE0662818D067287ED1E8
:102D100038E00021112F01DB112000E0781CCDE903
:102D2000000106A90EA8FFF7DDFCDDE90F010E9AF0
:102D300003910021009207F1010A04914DE04FF048
:102D400000400097CDE9011006A90EA8FFF7CAFCC4
:102D5000DDE90F0203920E9B11990022DDF80CA011
:102D60000093049211B9791C00EB010AB7EB0A0039
:102D700004D4C0F1FF3007F1010A0490AAEB070068
:102D8000019044E0012F00DA01270021112F01DD1D
:102D9000112000E03846CDE9000106A90EA8FFF792
:102DA000A1FCDDE90F010E9A03910021049100922C
:102DB000BA4621070CD40399514500DA8A46BAF184
:102DC000010F05DD009AAAF10101515C302908D0FC
:102DD000B84202DA10F1040F06DA0121CDE9011040
:102DE00015E0AAF10101E9E7002805DC0499014496
:102DF0000491AAEB000102E0411C514500DD8A4626
:102E00000499401A401C01904FF0004002902007A6
:102E100004D40198504501DBCDF8048000208DF8E2
:102E20004F0002980DF14F07B0F1004F25D02B2035
:102E30000E9002984FF0020800280CDA40420290EF
:102E40002D200E9007E00A210298FDF737FC303163
:102E5000029007F8011DB8F10001A8F10108F2DCA9
:102E600002980028EFD1791E0E980870307800F093
:102E7000200040F0450007F8020D12A8C01B00F129
:102E800007081498007800B1012000EB0A010198AE
:102E900001EBE07105984144401A401E0590E003A3
:102EA00006D45B462146179A059800F05DF8054464
:102EB0001498007818B15A46179990476D1CE00392
:102EC00024D55B462146179A059800F04DF8054435
:102ED0001CE00498002807DBDDE90301884203DDDC
:102EE0000098405C179901E0179930205A469047A6
:102EF000049805F10105401C04900198401E0190C2
:102F000004D12E205A46179990476D1CBAF1000142
:102F1000AAF1010ADDDC05E017F8010B5A46179902
:102F200090476D1CB8F10001A8F10108F4DC5B4684
:102F30002146179A0598ABE62D0000002B000000F3
:102F4000200000002DE9F041044600251E461746EA
:102F5000880404D405E039462020B0476D1C641E67
:102F6000F9D52846BDE8F0812DE9F0410446002559
:102F70001E469046C80301D5302700E0202788046C
:102F800004D505E041463846B0476D1C641EF9D5AE
:102F90002846BDE8F0810A68531C0B60107070472A
:102FA00010B5044601201449087002211348006836
:102FB00003F002FCFDF7E8FE4FF0FF311048006817
:102FC00003F0C2FE40F6B83003F026FA0D48008840
:102FD000FEF774FE00231A4619460948006803F0FC
:102FE00059FD08480088401C064908800121034813
:102FF000006803F0FEFB10BD1E000020440000200E
:103000004C0000201800002070B504460D4600BF9B
:1030100040210548FFF7E4F90028F9D0E1B2024861
:10302000FFF7ABFA204670BD00440040014800782D
:103030007047000017010020014800787047000029
:103040002101002001480078704700001401002091
:103050000148007870470000150100200148007801
:10306000704700001601002010B54FF4A060FEF775
:10307000F7FBFDF7C5FF002010BD00002DE9F04172
:1030800005460E462648076826480068001D03F0DE
:1030900075F850B92348006890F82C10012088403A
:1030A00021490968814320480160681CD8B9D6B11C
:1030B0001E4948681B49096888601A49826809687E
:1030C000CA6018490968091D826851601549096874
:1030D000091D8160154A134909684A61114609684A
:1030E000491C11601AE07C190E4800684460BC421B
:1030F00007D20C480168091D0D48006803F0F8F874
:103100000CE008480168091D0A48006803F0F0F85F
:1031100009480068844201D207480460BDE8F08194
:10312000AC00002098000020B0000020CC0400205B
:10313000A00000209C000020C800002010B504461C
:1031400003F0F0F82F480068401C2E4908602E4814
:10315000006840B92C4804600846006801280DD179
:1031600000F0ECF90AE02948006838B92648006800
:10317000C06AE16A884201D8234804602448006894
:10318000401C2349086094F82C10012088402149F4
:10319000096808431F490860E16A01EB81011E4A82
:1031A00002EB81014868A0608268E260211D8268AC
:1031B00051608160E16A01EB8101174A02EB8102F3
:1031C0006261E16A01EB8101134A52F82110491C46
:1031D000E26A02EB8202104B43F8221003F0B4F8CB
:1031E0000A48006868B108480068C06AE16A884215
:1031F00007D24FF0805009490860BFF34F8FBFF3EB
:103200006F8F10BDA800002098000020B40000209F
:10321000C4000020B0000020B403002004ED00E052
:1032200010B503F07FF80C48006890B90B4803F024
:103230004FF80B4803F04CF808480A490860084862
:103240000949086000220C210A2003F0ACFB024966
:10325000086003F079F810BDE0000020E0040020D1
:10326000F4040020D8000020DC00002010B516E097
:1032700003F058F80C48C068C468201D02F07EFFB7
:103280000A480068401E0949086009480068401E55
:103290000749086003F058F8204600F05FF804483A
:1032A00000680028E4D110BDB8040020A800002068
:1032B000A400002070B504460D46206C70B1216C4E
:1032C000E0680144E160D4E90210884201D321683A
:1032D000E1602846226CE168FCF770FF70BD2DE9C3
:1032E000F04104460F4615464FF00008A66B206CCF
:1032F00048B9206800282CD1A06803F0FFFE804662
:103300000020A06025E07DB93946226C6068FCF79A
:1033100055FF216C606808446060D4E9010188426F
:1033200017D32068606014E03946226CE068FCF72F
:1033300045FF216CE068411AE1602168E06888423D
:1033400003D2216CA068411AE160022D01D106B1BF
:10335000761E701CA0634046BDE8F08110B504469F
:10336000206B03F001F8204602F0FEFF10BD01467D
:103370004A6A22B10A6B1268C2F10A0000E000201A
:10338000704700000146084A126812680AB9012213
:1033900000E000220A600A6822B9034A1268D26873
:1033A000106800E000207047D800002030B54FF4CE
:1033B0008843154800F007042CB1C01D20F0070019
:1033C000114C041B1B1B0246104C226000240F4DA5
:1033D0006C60D018083820F007000D4C20600024E5
:1033E0000B4D2D686C600A4D2D682C601146441AF7
:1033F0004C60074C24680C60064D4C682C60064DF0
:103400004C682C6030BD000008050020EC00002056
:10341000F4000020FC000020F800002000BFFFF7AF
:1034200025FF064800680128F9D94FF0805004496B
:103430000860BFF34F8FBFF36F8FF0E7B403002036
:1034400004ED00E010B5044654B10020A0602060F7
:103450000021E16000231A461946204603F01AFBBA
:1034600010BD2DE9F04106460D4617469846069CCC
:103470000DB9246000E02760E66325640121204641
:1034800003F0B8FABDE8F0812DE9FF5F80460E46F3
:103490009146DDE90E7A109CA9F10100216B01EB48
:1034A000800B2BF0070B7EB1002507E0715D04F166
:1034B00034004155705D00B902E06D1C102DF5D34C
:1034C00000BF0021432001550A2F00D30927E762DE
:1034D0006764201D02F009FF04F1180002F005FFE7
:1034E0002461C7F10A00A061646241465846039A0C
:1034F00000F0F8FA2060BAF1000F01D0CAF80040DD
:10350000BDE8FF9F2DE9F04705460E461746984651
:10351000DDE90894FFF784FE2560A661C4F81C80ED
:10352000C4F82090201D02F0E0FE2FB194F8240092
:1035300040F0040084F82400BDE8F08710B50024B2
:1035400007E004EB84010F4A02EB810002F0C0FEA9
:10355000641C0A2CF5D30C4802F0BAFE0B4802F0AA
:10356000B7FE0B4802F0B4FE0A4802F0B1FE0A486A
:1035700002F0AEFE044809490860044808490860A2
:1035800010BD0000B40300207C0400209004002043
:10359000A4040020B8040020CC0400209C000020DB
:1035A000A000002010B50146164800E0006803683E
:1035B0008B42FBD30246436813448B4204D14368D9
:1035C0004C682344436001460A464B681344046830
:1035D000A34211D10C4C03682468A34208D04B6865
:1035E0000468646823444B6003681B680B6005E053
:1035F000054B1B680B6001E003680B60884200D03C
:10360000016010BDEC000020F40000202DE9F04125
:1036100004460D4616461F464FF0000865602461BB
:10362000B5420CD8F01BA169884202D34FF00108C3
:1036300011E0211D0948006802F05AFE0BE0BE426D
:1036400004D2BD4202D34FF0010804E0211D04481A
:10365000006802F04DFE4046BDE8F081DC0000202D
:10366000D800002070B5054602F05CFEA86B08B9D2
:10367000012400E0002402F067FE204670BD70B512
:10368000054602F04FFEA86BE96B884201D1012488
:1036900000E0002402F058FE204670BD70B50546DB
:1036A0000E460E480068C068C468201D02F066FD22
:1036B00094F8240000F0040028B132462946204640
:1036C00000F0C4F805E094F8240000F0FE0084F84F
:1036D00024002046216A884770BD0000D8000020E1
:1036E0007FB56EE0019800286BDB039C606908B928
:1036F000012000E0002010B9201D02F03FFD6846C7
:1037000000F0D0F8054601980A2858D2DFE800F00A
:103710005705072E364706082F3700BF00BF00BFEA
:1037200094F8240040F0010084F824000298A26973
:10373000811803462A462046FFF768FFA8B194F88F
:10374000240000F0040038B10298A26981182A46CA
:10375000204600F07BF805E094F8240000F0FE001D
:1037600084F824002046216A884729E000BF94F8A5
:10377000240000F0FE0084F8240021E000BF94F84B
:10378000240040F0010084F824000298A061A069A0
:1037900041192B462A462046FFF738FF10E094F8DF
:1037A000240000F0020018B9204602F0DDFD05E01B
:1037B00094F8240000F0FE0084F8240000E000BF2C
:1037C00000BF002201A90348006803F03BFA00286B
:1037D00088D17FBDE0000020F8B505460C4602F018
:1037E000B3FF684600F05EF80646009820BB44B977
:1037F000B54206D803F0D2FD31462846FFF74EFF0A
:103800001CE03CB10E480068006808B9012000E0E7
:1038100000200446A91B22460A48006802F0D6FD93
:1038200003F0BCFD50B94FF0805007490860BFF36A
:103830004F8FBFF36F8F01E003F0B0FDF8BD0000C4
:10384000DC000020E000002004ED00E070B504463C
:103850000D46164604E0A06905442046216A8847C3
:10386000A06941192B4632462046FFF7CFFE0028BB
:10387000F1D170BD09480068006808B9012000E076
:10388000002020B14FF0FF300549086005E00348F3
:103890000068C06800680249086070479C0000200A
:1038A000C800002070B5044603F05AFB05460748DF
:1038B0000068854204D200F00BF80120206001E08E
:1038C0000020206001480560284670BDE800002007
:1038D00070B508E00D480068C06804684FF0FF311B
:1038E0002046FFF7DBFE09480068006808B90120A0
:1038F00000E000200028EDD0044805680448006876
:10390000024908600248056070BD0000D800002030
:10391000DC00002000BFBF2080F31188BFF34F8F71
:10392000BFF36F8F00BF00BFFEE710B50346002056
:1039300022B903EA010434B1012004E003EA0104DE
:103940008C4200D1012010BD08B500BF6846FFF7CA
:1039500019FD044620460099FFF73EFFFFF7C0FE21
:10396000F4E770B5044602F0DDFC94F9455010E030
:10397000606A08B9012000E0002038B904F1240091
:1039800003F088FC18B102F06DFD00E003E0681E52
:1039900045B2002DECDC00BFFF2084F8450002F0AA
:1039A000D3FC02F0BFFC94F9445010E0206908B940
:1039B000012000E0002048B904F1100003F06AFC87
:1039C00008B102F04FFD681E45B200E001E0002D95
:1039D000ECDC00BFFF2084F8440002F0B5FC70BDB1
:1039E0002DE9F04705464FF0000902F0ADFE3048E2
:1039F000006808B9FFF7DAFC75B105F00700C0F1FF
:103A00001008C8F1FF30A84201D2012000E00020D8
:103A100008B9454400E00025012000EBE5700028CE
:103A200041D0002D3FD02348006885423BD8224E2C
:103A30003046046801E0264624686068A84202D245
:103A400020680028F7D11A48006884422BD03068DB
:103A500000F10809206830606068401B102807D911
:103A600067196068401B786065603846FFF79AFD0B
:103A7000104960680968081A0E490860084600681D
:103A80000E490968884203D20A4800680B49086059
:103A9000606840F0004060600020206008480068D6
:103AA000401C0749086003F079FC4846BDE8F087F0
:103AB000F4000020F8000020EC000020FC000020B2
:103AC000000100200648006830B10549096801F18D
:103AD0004800896C491C016001480068704700007B
:103AE00098000020001F4FF080730360001F21F03A
:103AF00001030360001F034B036014380260203889
:103B0000704700001539000810B54FF48071024865
:103B1000FCF76FFB10BD000008490020002002499F
:103B200008800249088070472201002024010020FB
:103B30000748008820B1012806D10649087003E033
:103B400000200449087000BF00BF02480078704799
:103B50001E010020200100201FB50446012C00DAC0
:103B60000124B4F5616F01DD4FF461641B490C70F1
:103B700000201B4908601B4908701B49088001216F
:103B80000220FDF7DFFF42F20F70ADF8080041F6AA
:103B90001F40ADF804000020ADF80A00ADF80600A3
:103BA00001A91248FEF70CFB012211460F48FEF74F
:103BB00098FA1D208DF8000002208DF801000320E6
:103BC0008DF8020001208DF803006846FDF710FE15
:103BD00001210648FEF765FA1FBD00001D01002007
:103BE000180100201C0100201E01002000040040DC
:103BF000002002490860024908807047180100202F
:103C00001E010020002004490860012003490870BB
:103C10000020034908807047180100201C01002083
:103C20001E01002000200149087070471C0100207F
:103C300008B529E04FF0FF3000231A46012100901B
:103C40001248006802F01EFE4FF0FF3000231A46B3
:103C50004FF4805100900D48006802F013FEFDF70C
:103C60002DF80B49088008460088012809D1022157
:103C70000648006802F0BDFD01210448006802F01A
:103C80009BFD0A2002F0C8FBD4E70000440000209E
:103C90001A000020ADF5207DF6A0FEF7EFFC4FF0F6
:103CA000FF3000231A4620210090F848006802F0F7
:103CB000E9FD09244FF4FA6002F0AEFB4FF0FF314A
:103CC000F348006803F040F8F2A0FDF7E5F80023A0
:103CD0001A461946EE48006802F0DCFE2DE04FF46B
:103CE0008071EE48FDF7B8FFEC49EDA0FEF7C6FC89
:103CF000ECA1EA48FCF788FA20B9ECA1E748FCF708
:103D000083FA00B11AE0EAA1E448FCF77DFA80B139
:103D10004FF0FF31DE48006803F016F8DDA0FDF734
:103D2000BBF800231A461946D948006802F0B2FED3
:103D300003E04FF47A7002F06FFBD0E700BF4FF062
:103D4000FF31D348006802F0FFFFDBA0FDF7A4F8C5
:103D500000231A461946CE48006802F09BFE2DE06B
:103D60004FF48071CD48FDF777FFCC49CCA0FEF72A
:103D700085FCD1A1C948FCF747FA20B9D0A1C748B2
:103D8000FCF742FA00B11AE0C9A1C448FCF73CFABA
:103D900080B14FF0FF31BE48006802F0D5FFC6A0E9
:103DA000FDF77AF800231A461946B948006802F070
:103DB00071FE03E04FF47A7002F02EFBD0E700BFF3
:103DC0004FF0FF31B248006802F0BEFFBDA0FDF722
:103DD00063F800231A461946AD48006802F05AFEFF
:103DE0002DE04FF48071AD48FDF736FFAB49ACA034
:103DF000FEF744FCB7A1A948FCF706FA20B9B0A128
:103E0000A648FCF701FA00B11AE0A9A1A348FCF703
:103E1000FBF980B14FF0FF319D48006802F094FF3C
:103E2000A8A0FDF739F800231A46194698480068FB
:103E300002F030FE03E04FF47A7002F0EDFAD0E7C2
:103E400000BF4FF0FF319248006802F07DFFA4A050
:103E5000FDF72EF800231A4619468D48006802F037
:103E600019FE28E04FF480718C48FDF7F5FE8B4970
:103E70008BA0FEF703FC92A18848FCF7C5F900B1BE
:103E80001AE08BA18548FCF7BFF980B14FF0FF31F4
:103E90007F48006802F058FF9AA0FDF709F8002358
:103EA0001A4619467A48006802F0F4FD03E04FF420
:103EB0007A7002F0B1FAD5E700BF4FF0FF317448D5
:103EC000006802F041FF9848FCF7F2FF00231A4611
:103ED00019466F48006802F0DDFD30E04FF4807154
:103EE0006E48FDF7B9FE6D496DA0FEF7C7FB74A1E2
:103EF0006A48FCF789F920B98CA16848FCF784F975
:103F000000B11DE06AA16548FCF77EF998B188A070
:103F1000FEF7B4FB4FF0FF315D48006802F014FF7C
:103F20008148FCF7C5FF00231A4619465848006827
:103F300002F0B0FD03E04FF47A7002F06DFACDE7C5
:103F400000BF4FF0FF315248006802F0FDFE7BA039
:103F5000FCF7AEFF00231A4619464D48006802F0F0
:103F600099FD28E04FF480714C48FDF775FE4B49F0
:103F70004BA0FEF783FB52A14848FCF745F900B17E
:103F80001AE04BA14548FCF73FF980B14FF0FF31F3
:103F90003F48006802F0D8FE68A0FCF789FF0023C4
:103FA0001A4619463A48006802F074FD03E04FF4DF
:103FB0007A7002F031FAD5E700BF4FF0FF31344894
:103FC000006802F0C1FE6848FCF772FF00231A4641
:103FD00019462F48006802F05DFD28E04FF480711B
:103FE0002E48FDF739FE2D492DA0FEF747FB34A1E1
:103FF0002A48FCF709F900B11AE02DA12748FCF77F
:1040000003F980B14FF0FF312148006802F09CFEB7
:104010005548FCF74DFF00231A4619461C48006816
:1040200002F038FD03E04FF47A7002F0F5F9D5E7BD
:1040300000BF4FF0FF311648006802F085FE4B4884
:10404000FCF736FF00231A4619461148006802F0B3
:1040500021FDA8E04FF480711048FDF7FDFD0F49E8
:104060000FA0FEF70BFB16A10C48FCF7CDF800B132
:104070009AE07DE048656C6C6F2066726F6D20552C
:104080005341525439210D0A000000004400002021
:104090004C00002041542B5253540000B402002025
:1040A00025730A0072656164790000002300000036
:1040B0004552524F5200000041544530000000006C
:1040C0004F4B000041542B43574D4F44453D310D5C
:1040D0000A00000041542B43574D4F44453D3100E9
:1040E00041542B43574A41503D226C646E36342272
:1040F0002C223135333539333239373238220D0AF3
:104100000000000041542B43574A41503D22436870
:1041100075616E67222C226C7A71373836303831EF
:1041200030220D0A00000000D87500082533440035
:1041300074686973206775790D0A000041542B4D2E
:10414000515454434F4E4E3D302C226D7174747354
:104150002E6865636C6F7564732E636F6D222C31EE
:104160003838332C300D0A00E47600089C760008BD
:10417000AFF2C401FE48FCF747F880B14FF0FF31C1
:10418000FC48006802F0E0FDFB48FCF791FE0023CC
:104190001A461946F748006802F07CFC03E04FF429
:1041A0007A7002F039F955E700BFFEF73FFF08B11A
:1041B000F2A000E0F3A00546FEF750FF08B1EFA023
:1041C00000E0F0A00646FEF743FF08B1EBA000E0D8
:1041D000ECA007463B46ED48CDE900650288EC4976
:1041E00061A8FEF75BFA4FF0FF31E248006802F089
:1041F000ABFD61A8FCF750FE00231A461946DD48C6
:10420000006802F047FCE1480088401CDF49088054
:1042100030E04FF48071D648FDF71EFDD449AFF26F
:104220008010FEF72BFAAFF26811D148FBF7ECFFD4
:1042300000B120E0AFF28811CD48FBF7E5FFA8B14F
:104240004FF0FF31CB48006802F07EFD61A8FCF71B
:1042500023FE00231A461946C648006802F01AFCDD
:10426000CA480088401CC949088003E04FF47A70AE
:1042700002F0D2F8CDE700BFFC2161A8FBF7B9FF3F
:10428000FEF7E0FE08B1BDA000E0BEA00546FEF7C7
:10429000D3FE08B1B9A000E0BAA006463346BB4839
:1042A00000950288BB4961A8FEF7F8F94FF0FF318D
:1042B000B048006802F048FD61A8FCF7EDFD00235E
:1042C0001A461946AB48006802F0E4FBAF48008884
:1042D000401CAE49088030E04FF48071A448FDF7DF
:1042E000BBFCA349AFF24820FEF7C8F9AFF230217A
:1042F0009F48FBF789FF00B120E0AFF24C219C48BA
:10430000FBF782FFA8B14FF0FF319A48006802F036
:104310001BFD61A8FCF7C0FD00231A46194695480D
:10432000006802F0B7FB99480088401C9749088054
:1043300003E04FF47A7002F06FF8CDE700BF9348C6
:104340000288954937A8FEF7A9F94FF0FF3189484F
:10435000006802F0F9FC37A8FCF79EFD00231A461E
:1043600019468448006802F095FB88480088401C84
:104370008649088030E04FF480717D48FDF76CFC81
:104380007B49AFF2E420FEF779F9AFF2CC2178480F
:10439000FBF73AFF00B120E0AFF2EC217448FBF7E5
:1043A00033FFA8B14FF0FF317248006802F0CCFC37
:1043B00037A8FCF771FD00231A4619466D480068BE
:1043C00002F068FB71480088401C7049088003E0D7
:1043D0004FF47A7002F020F8CDE700BFFFF7A8FB9A
:1043E00008B166A000E067A005462B466748028832
:1043F0006A4903A8FEF752F94FF0FF315D480068A3
:1044000002F0A2FC03A8FCF747FD00231A46194658
:104410005848006802F03EFB5C480088401C5B493D
:10442000088030E04FF480715148FDF715FC504989
:10443000AFF29430FEF722F9AFF27C314C48FBF733
:10444000E3FE00B120E0AFF298314948FBF7DCFE13
:10445000A8B14FF0FF314748006802F075FC03A88F
:10446000FCF71AFD00231A4619464248006802F07C
:1044700011FB46480088401C4449088003E04FF483
:104480007A7001F0C9FFCDE700BFD02103A8FBF788
:10449000B0FE3E480288424903A8FEF7FFF84FF0FD
:1044A000FF313448006802F04FFC03A8FCF7F4FC2D
:1044B00000231A4619462F48006802F0EBFA3348E9
:1044C0000088401C3149088030E04FF48071284852
:1044D000FDF7C2FB2649AFF23840FEF7CFF8AFF246
:1044E00020412348FBF790FE00B120E0AFF24041AD
:1044F0001F48FBF789FEA8B14FF0FF311D48006847
:1045000002F022FC03A8FCF7C7FC00231A46194658
:104510001848006802F0BEFA1C480088401C1B497D
:10452000088003E04FF47A7001F076FFCDE700BF1A
:1045300001211C48006802F05CF94021194800681C
:1045400002F057F94FF480711648006802F051F9F3
:104550004FF400711348006802F04BF94FF480618A
:104560001048006802F045F94FF400610D481BE067
:10457000B40200204C0000209C760008747275651F
:104580000000000066616C736500000018000020E8
:10459000AC8F0008AC82000858800008608D0008CD
:1045A000DC8C000844000020006802F022F94FF47F
:1045B0008051FE48006802F01CF9FFF7AFFAFFF7E0
:1045C000A3FAF4E34FF48071F948FDF745FBF9498C
:1045D000088008460088052864DDF549AFF24050A0
:1045E000FEF74CF8F4A1F248FBF70EFE00287DD050
:1045F000AFF27801EE48FBF707FEE8B3FEF730F8BC
:10460000FC2161A8FBF7F5FDFEF728FD10B1AFF224
:10461000940001E0AFF2940005462B46E84802887A
:10462000E84961A8FEF73AF84FF0FF31E648006824
:1046300002F08AFB40F6B83001F0EEFE61A8FCF70C
:104640002BFCDF480088401CDD49088000231A4607
:104650001946DD48006802F01DFAFC2161A8FBF74D
:10466000C8FDD7480288D94961A8FEF717F84FF06E
:10467000FF31D548006800E015E002F065FB40F628
:10468000B83001F0C9FE61A8FCF706FCCC480088F0
:10469000401CCB49088000231A461946CA480068C6
:1046A00002F0F8F98FE2AFF22411C148FBF7ACFD3C
:1046B000F0B3FDF7C7FFFC2161A8FBF79AFDFEF7F9
:1046C000CDFC10B1AFF24C1001E0AFF2481005463E
:1046D0002B46BB480288BB4961A8FDF7DFFF4FF0BE
:1046E000FF31B948006802F02FFB00E05CE040F6C3
:1046F000B83001F091FE61A8FCF7CEFBB04800880D
:10470000401CAF49088000231A461946AE4800688D
:1047100002F0C0F9FC2161A8FBF76BFDA8480288F4
:10472000AB4961A8FDF7BAFF4FF0FF31A64800E0A2
:1047300016E0006802F008FB40F6B83001F06CFEAD
:1047400061A8FCF7A9FB9E480088401C9C49088092
:1047500000231A4619469C48006802F09BF9A1E71D
:10476000FC2161A8FBF745FD95480288994961A89D
:10477000FDF794FF4FF0FF319348006802F0E4FA30
:1047800040F6B83001F048FE61A8FCF785FB8C4884
:104790000088401C8A49088000231A4619468A4826
:1047A000006802F077F97DE78BA18148FBF72CFDCB
:1047B00000287DD0AFF23C217D48FBF725FDE8B312
:1047C000FCF784FFFC2161A8FBF713FDFEF72EFC2C
:1047D00010B1AFF2582001E0AFF2582005462B4649
:1047E000774802887D4961A8FDF758FF4FF0FF31F7
:1047F0007548006802F0A8FA40F6B83001F00CFEE7
:1048000061A8FCF749FB6E480088401C6C49088091
:1048100000231A4619466C48006802F03BF9FC2157
:1048200061A8FBF7E6FC664802886D4961A8FDF7C0
:1048300035FF4FF0FF316448006800E015E002F0FA
:1048400083FA40F6B83001F0E7FD61A8FCF724FBDD
:104850005B480088401C5A49088000231A461946C4
:104860005948006802F016F91CE7AFF2E8215048F9
:10487000FBF7CAFCF0B3FCF71BFFFC2161A8FBF7B8
:10488000B8FCFEF7D3FB10B1AFF2103001E0AFF28D
:104890000C3005462B464A480288504961A8FDF76E
:1048A000FDFE4FF0FF314848006802F04DFA00E08D
:1048B0005CE040F6B83001F0AFFD61A8FCF7ECFA1F
:1048C0003F480088401C3E49088000231A4619468C
:1048D0003D48006802F0DEF8FC2161A8FBF789FC86
:1048E000374802883F4961A8FDF7D8FE4FF0FF31F5
:1048F000354800E016E0006802F026FA40F6B830CD
:1049000001F08AFD61A8FCF7C7FA2D480088401C19
:104910002B49088000231A4619462B48006802F0EC
:10492000B9F8BFE6FC2161A8FBF763FC24480288C4
:104930002D4961A8FDF7B2FE4FF0FF312248006813
:1049400002F002FA40F6B83001F066FD61A8FCF70B
:10495000A3FA1B480088401C1949088000231A4606
:1049600019461948006802F095F89BE61FA1104807
:10497000FBF74AFC00287CD0AFF200410C48FBF763
:1049800043FCB8B3FCF7F8FE4FF0FF310E48006867
:1049900002F0DAF940F6B83001F03EFD0848008830
:1049A000FDF7C2F906480088401C24E044000020BE
:1049B000B40200202600002077696E640000000029
:1049C00018000020E49000084C0000201885000822
:1049D000E47B0008F07800084C454400649000082F
:1049E00088840008507B00082C7700086C6F636B8C
:1049F000000000002CE0FE49088000231A461946FA
:104A0000FC48006802F046F8FC2161A8FBF7F1FBC6
:104A1000F7480288F84961A8FDF740FE4FF0FF31E2
:104A2000F448006802F090F940F6B83001F0F4FC68
:104A300061A8FCF731FAEE480088401CEC49088078
:104A400000231A461946EB48006802F023F829E6CD
:104A5000AFF2D041E948FBF7D7FBE8B3FCF77EFEA5
:104A60004FF0FF31E348006802F06EF940F6B830CD
:104A700000E05BE001F0D0FCDD480088FDF754F970
:104A8000DB480088401CDA49088000231A46194692
:104A9000D848006801F0FEFFFC2161A8FBF7A9FBE4
:104AA000D3480288D64961A8FDF7F8FD4FF0FF31E1
:104AB000D048006802F048F940F6B83001F0ACFC8C
:104AC00061A8FCF7E9F9CA480088401CC849088079
:104AD00000231A46194600E004E0C648006801F0C9
:104AE000D9FFDFE5FC2161A8FBF783FBC048028802
:104AF000C44961A8FDF7D2FD4FF0FF31BD48006801
:104B000002F022F940F6B83001F086FC61A8FCF70B
:104B1000C3F9B7480088401CB549088000231A46ED
:104B20001946B448006801F0B5FFBBE5B6A1B3482B
:104B3000FBF76AFB00287CD0AFF2C051AF48FBF70F
:104B400063FBE8B3FDF75AFD4FF0FF31A948006859
:104B500002F0FAF840F6B83001F05EFCA448008894
:104B6000FDF722F9A2480088401CA14908800023D3
:104B70001A4619469F48006801F08CFFFC2161A885
:104B8000FBF737FB9A480288A24961A8FDF786FD2A
:104B90004FF0FF319748006802F0D6F840F6B83081
:104BA00001F03AFC61A8FCF777F991480088401CB5
:104BB0008F49088000231A4619468E48006800E095
:104BC00002E001F067FFD5E3AFF248618B48FBF7E5
:104BD0001BFB78B3FDF704FD4FF0FF3185480068FB
:104BE00002F0B2F840F6B83001F016FC80480088B8
:104BF000FDF7DAF87E480088401C7D4908800023D4
:104C00001A4619467B48006801F044FFFC2161A860
:104C1000FBF7EFFA764802887F4961A8FDF73EFD71
:104C20004FF0FF317348006802F08EF840F6B8305C
:104C300001E036E011E001F0EFFB61A8FCF72CF990
:104C40006B480088401C6A49088000231A461946B0
:104C50006848006801F01EFF8CE3FC2161A8FBF7A7
:104C6000C8FA634802886D4961A8FDF717FD4FF047
:104C7000FF316048006802F067F840F6B83001F094
:104C8000CBFB61A8FCF708F959480088401C58493B
:104C9000088000231A4619465648006801F0FAFEBB
:104CA00068E35FA15548FBF7AFFA00287ED05EA10C
:104CB0005248FBF7A9FAE8B3FCF7AAF84FF0FF3126
:104CC0004C48006802F040F840F6B83001F0A4FB10
:104CD00047480088FCF7F2FF45480088401C4449DB
:104CE000088000231A4619464248006801F0D2FEA7
:104CF000FC2161A8FBF77DFA3D4802884C4961A878
:104D0000FDF7CCFC4FF0FF313A48006802F01CF888
:104D100040F6B83001F080FB61A8FCF7BDF83448DC
:104D20000088401C3249088000231A461946314841
:104D3000006800E002E001F0ADFE1BE33DA12F485A
:104D4000FBF762FAA0B3FEF777F904460CB1FCF763
:104D500005FDFCF77FF84FF0FF312648006801F0B1
:104D6000F3FF40F6B83001F057FB21480088FCF70C
:104D7000A5FF1F480088401C1D49088000231A46D3
:104D800019461C48006801F085FEFC2161A8FBF76C
:104D900030FA17480288294961A8FDF77FFC4FF0D7
:104DA000FF311448006801F0CFFF02E02FE1E4E298
:104DB00059E040F6B83001F02FFB61A8FCF76CF821
:104DC0000B480088401C0A49088000231A461946EF
:104DD0000848006801F05EFE002CAED04FF0FF31B5
:104DE0000448006801F0B0FF40F6B83028E0000049
:104DF000180000204C000020AC850008B402002000
:104E0000787C000858780008776174657250756D79
:104E100070000000408600080C7D000884790008BE
:104E2000646F6F7200000000636C6F7365496E0001
:104E3000688300086F70656E496E0000F883000893
:104E400001F0EAFAFE480088FCF76EFFFC48008893
:104E5000401CFB49088000231A461946F94800689F
:104E600001F018FE86E2F8A1FA48FBF7CDF9E8B3A5
:104E7000FBF78AFF4FF0FF31F248006801F064FF52
:104E800040F6B83001F0C8FAED480088FCF716FF8C
:104E9000EB480088401CEA49088000231A4619465E
:104EA000E848006801F0F6FDFC2161A8FBF7A1F9D4
:104EB000E3480288E84961A8FDF7F0FB4FF0FF31B5
:104EC000E048006801F040FF40F6B83001F0A4FA75
:104ED00061A8FBF7E1FFDA480088401CD849088048
:104EE00000231A461946D748006800E002E001F0A6
:104EF000D1FD3FE2D9A1D748FBF786F9F0B3FEF721
:104F00009BF804460CB1FCF729FCFBF75FFF4FF060
:104F1000FF31CC48006801F017FF40F6B83001F0CF
:104F20007BFAC7480088FCF7C9FEC5480088401CCA
:104F3000C349088000231A461946C248006801F098
:104F4000A9FDFC2161A8FBF754F9BD480288C549B9
:104F500061A8FDF7A3FB4FF0FF31BA48006801F0EC
:104F6000F3FE40F6B83001F057FA61A8FBF794FF62
:104F7000B3480088401CB249088000E023E00023C9
:104F80001A461946AF48006801F084FD002CB0D0E5
:104F90004FF0FF31AB48006801F0D6FE40F6B83064
:104FA00001F03AFAA6480088FCF7BEFEA448008843
:104FB000401CA349088000231A461946A1480068EE
:104FC00001F068FDD6E1FC2161A8FBF712F99C48CD
:104FD0000288A54961A8FDF761FB4FF0FF319948B0
:104FE000006801F0B1FE40F6B83001F015FA61A892
:104FF000FBF752FF92480088401C9149088000232B
:105000001A4619468F48006801F044FDB2E197A1A5
:105010009048FBF7F9F800287ED096A18D48FBF761
:10502000F3F8E8B34FF480519448006801F0C4FBF2
:10503000FC2161A8FBF7DDF881480288904961A84E
:10504000FDF72CFB4FF0FF317E48006801F07CFE3D
:1050500040F6B83001F0E0F961A8FBF71DFF784891
:105060000088401C7649088000231A461946754876
:10507000006801F00FFDFC2161A8FBF7BAF8704849
:105080000288804961A8FDF709FB4FF0FF316D48A8
:10509000006801F059FE40F6B83001F0BDF900E0BB
:1050A0000FE061A8FBF7F8FE65480088401C6449E2
:1050B000088000231A4619466248006801F0EAFC9D
:1050C00058E171A16348FBF79FF830B34FF480516A
:1050D0006A48006801F08DFBFC2161A8FBF789F8A4
:1050E000574802886A4961A8FDF7D8FA4FF0FF31A6
:1050F0005448006801F028FE40F6B83001F08CF901
:1051000061A8FBF7C9FE4E480088401C4C49088046
:1051100000231A46194601E04CE027E049480068A0
:1051200001F0B8FCFC2161A8FBF763F84448028851
:10513000584961A8FDF7B2FA4FF0FF3141480068C5
:1051400001F002FE40F6B83001F066F961A8FBF705
:10515000A3FE3B480088401C3949088000231A46BA
:1051600019463848006801F095FC03E1FC2161A86C
:10517000FBF73FF832480288474961A8FDF78EFAED
:105180004FF0FF312F48006801F0DEFD40F6B830E7
:1051900001F042F961A8FBF77FFE29480088401C16
:1051A0002749088000231A4619462648006801F05E
:1051B00071FCDFE039A12748FBF726F8F0B3AFF622
:1051C00044412448FBF720F8C8B3FC2161A8FBF751
:1051D00010F81B480288334961A8FDF75FFA4FF0C9
:1051E000FF311848006801F0AFFD40F6B83001F01B
:1051F00013F961A8FBF750FE11480088401C1049C4
:10520000088000231A4619460E48006801F042FC47
:10521000FC2161A8FAF7EDFF09480288224961A83C
:10522000FDF73CFA4FF0FF310648006801F08CFDB5
:1052300040F6B83001F0F0F861A837E077E052E0CE
:10524000180000204C000020636C6F73654F75746C
:1052500000000000B4020020288A00086F70656E0C
:105260004F757400B88A0008207A00086D6574686C
:105270006F6400006D616E75616C00004400002079
:10528000208200088C8100086175746F00000000A6
:10529000FC8700086C870008C0770008726573659A
:1052A00074000000288F00080C890008FBF7F4FD4B
:1052B00033480088401C3249088000231A461946AA
:1052C0003048006801F0E6FB00BF2F48006800F49A
:1052D000E0602E490843001D2B490860BFF34F8F43
:1052E00000BF00BFFEE7FC2161A8FAF782FF244857
:1052F0000288274961A8FDF7D1F94FF0FF31214815
:10530000006801F021FD40F6B83001F085F861A891
:10531000FBF7C2FD1A480088401C19490880002389
:105320001A4619461748006801F0B4FB22E0FC2138
:1053300061A8FAF75EFF12480288164961A8FDF7D6
:10534000ADF94FF0FF310F48006801F0FDFC40F669
:10535000B83001F061F861A8FBF79EFD08480088AD
:10536000401C0749088000231A4619460548006872
:1053700001F090FB0A2001F04FF8FFF723B900007D
:10538000180000204C0000200CED00E00000FA05A1
:10539000B87A0008D8860008A4B04FF0FF30002388
:1053A0001A46402100903648006801F06BFA00244C
:1053B000002564E04FF0FF3000231A464FF480517F
:1053C00000902F48006801F05DFA4FF0FF312D4842
:1053D000006801F0B9FCFCF79DF9064600231A4667
:1053E00019462848006801F055FB012E1FD1002CFA
:1053F00041D1FCF76BF924480288244902A8FDF743
:105400004DF9611E2248006801F09EFC40F6B8305C
:1054100001F002F802A8FBF73FFD00231A461946E7
:105420001B48006801F036FB0124002523E015BB72
:10543000FCF73EF914480288164902A8FDF72EF938
:105440004FF0FF311248006801F07EFC40F6B830A2
:1054500000F0E2FF02A8FBF71FFD0B480088401C8C
:105460000949088000231A4619460948006801F0D6
:1054700011FB002401250A2000F0CEFF00BF99E7B0
:10548000440000205000002018000020248E000856
:105490004C000020588C0008A6B04FF0FF300023CD
:1054A0001A46402100902F48006801F0EBF90025D2
:1054B0000026002455E04FF0FF312B48006801F032
:1054C00043FCFCF727F9044600231A4619462648F0
:1054D000006801F0DFFA012C1DD1002E3ED12348D7
:1054E0000288234901A8FDF7D9F8A11E21480068C8
:1054F00001F02AFC40F6B83000F08EFF01A8FBF75F
:10550000CBFC00231A4619461A48006801F0C2FA7B
:105510000126002522E00CBB05BB14480288164971
:1055200001A8FDF7BBF84FF0FF311248006801F009
:105530000BFC40F6B83000F06FFF01A8FBF7ACFCA5
:105540000A480088401C0949088000231A46194669
:105550000848006801F09EFA012500260A2000F0A4
:105560005BFFA8E744000020500000201800002046
:105570003C7F00084C0000209C89000808B54FF0D3
:10558000FF3000231A464FF48061009027480068DE
:1055900001F078F948E0FCF7F6FF0446B4F57A7FAD
:1055A00013DD23480078022801D0FCF763F90022BC
:1055B00004210120FCF75CFA012205211046FCF7CA
:1055C00057FA02201A4908702AE01A480078012880
:1055D00013D117480078042801D0FCF74BF90222B8
:1055E00004210120FCF744FA032205210120FCF7E5
:1055F0003FFA04200E49087012E00D480078032895
:1056000001D0FCF737F9042211460120FCF730FAEB
:10561000052211460120FCF72BFA032004490870EB
:10562000642000F0F9FE00BFB5E700004400002050
:105630002500002024000020A4B06CE04FF0FF30D3
:1056400000231A46802100903348006801F01AF9BF
:105650004FF0FF3000231A464FF4805100902E483F
:10566000006801F00FF92D480078012809D1FEF7F4
:10567000BFFAFEF7C7FA00202849087028A0FCF7F7
:10568000FDFFFEF755FA01282ED1FEF751FA08B1B9
:1056900025A000E026A00446234627480288274983
:1056A00002A8FCF7FBFF4FF0FF312548006801F02E
:1056B0004BFB40F6B83000F0AFFE02A8FBF7ECFB66
:1056C00000231A4619461E48006801F0E3F91A48FB
:1056D0000088401C1849088001201049087080216A
:1056E0000D48006801F068F8FBF700FF01280FD1B2
:1056F00004210948006801F07CF84FF40051064885
:10570000006801F059F880210348006801F054F85E
:105710000A2000F081FE91E7440000203C000020B8
:105720007965730D0A000000747275650000000051
:1057300066616C7365000000180000206491000829
:105740004C00002008B55EE04FF0FF3000231A4601
:10575000082100902C48006801F094F84FF0FF30C9
:1057600000231A464FF4805100902748006801F04A
:1057700089F8FBF7BBFE012842D0FBF7C7FE0128E2
:105780003ED0FBF783FA01283AD04FF0FF311F4893
:10579000006801F0D9FA40F6B83000F03DFE1C4830
:1057A0000088FCF7E1FA00231A46194617480068FA
:1057B00001F070F9FBF72CFB4FF0FF311348006844
:1057C00001F0C2FA40F6B83000F026FE104800881A
:1057D000FCF774FA00231A4619460C48006801F0D9
:1057E00059F90B480088401C0949088010210648D7
:1057F000006800F0FEFF08210348006800F0DCFFAD
:105800000A2000F009FE9FE7440000204C00002021
:105810001800002008B5FCE04FF0FF3000231A46C6
:10582000022100907B48006801F02CF84FF0FF3017
:1058300000231A464FF4805100907648006801F02A
:1058400021F875480078012838D1FBF703FB4FF0A9
:10585000FF317248006801F077FA40F6B83000F086
:10586000DBFD6F480088FCF729FA00231A46194629
:105870006A48006801F00EF969480088401C6849D0
:10588000088001F06DFB04464FF0FF3000232246F4
:10589000012100906348006801F068FE01F060FBA0
:1058A00004464FF0FF3000232246022100905D485D
:1058B000006801F05BFE002057490870FBF7E6F92D
:1058C000594908800846008858490988884209D003
:1058D00055480088012802D15549087002E000208F
:1058E000534908705048008850490880FBF70EFE65
:1058F000002876D1FBF7FAFD002872D14C480078D9
:1059000001286ED1801E00231A46032100904548CD
:10591000006801F02BFE01203F490870811E3F48BE
:10592000006801F011FA40F6B83000F075FD3C480F
:105930000088FCF719FA00231A4619463748006810
:1059400001F0A8F836480088401C35490880FBF76C
:105950001BFA4FF0FF313148006801F0F5F940F6CD
:10596000B83000F059FD2E480088FCF7A7F9002355
:105970001A4619462948006801F08CF82848008822
:10598000401C27490880FBF7F7FE4FF0FF31234802
:10599000006801F0D9F940F6B83000F03DFD20482C
:1059A0000088FCF7C1F900231A4619461B48006815
:1059B00001F070F81A480088401C194908808021BD
:1059C0001448006800F015FF4FF4005111480068BA
:1059D00000F00FFF02210F48006800F0EDFE15E017
:1059E000FFE7FBF793FD012803D0FBF77FFD0128BC
:1059F0000CD101F0B5FA04464FF0FF3000232246E7
:105A0000022100900748006801F0B0FD0A2000F074
:105A100003FD01E7440000201E0000204C00002090
:105A20001800002048000020200000202200002054
:105A30002400002008B566E04FF0FF3000231A462E
:105A4000042100903048006800F01CFF4FF0FF3048
:105A500000231A464FF4805100902B48006800F054
:105A600011FFFEF7DFF80120284908708021264841
:105A7000006800F0A1FEFBF771FE4FF0FF312448F3
:105A8000006801F061F940F6B83000F0C5FC21482B
:105A90000088FCF749F900231A4619461C4800689B
:105AA00000F0F8FF1B480088401C1A490880FBF7EB
:105AB0008DF94FF0FF311648006801F045F940F6C6
:105AC000B83000F0A9FC13480088FCF7F7F8002371
:105AD0001A4619460E48006800F0DCFF0D480088A1
